:1000000073616E696B6120616E64207465616D2738
:10001000732070726F6A6563742020202020202076
:1000200020007A1479FA00000000D9FADAF622F5F5
:1000300090C2B5C2B7D2B61122C2B622F590D2B5DF
:10004000C2B7D2B61122C2B62275900075B00311A4
:10005000227430113C7430113C7430113C743811EE
:100060002F740F112F7401112F7406112F748F111B
:100070002F229000007F00E0600E113C11227418C6
:0A008000112F1122A30F80EF80FE64
:00000001FF
