:03000000020800F3
:0C080000787FE4F6D8FD758129020847D6
:10091F0020220873616E696B6120616E64207465BB
:10092F00616D27732070726F6A65637420202020B9
:05093F00202020200033
:0708F8001209617F327E004E
:1008FF00E4FDFCC3ED9FEC9E5015E4FBFA0BBB002F
:0F090F00010AEB64054A70F50DBD00010C80E490
:01091E0022B6
:100961008F90C2B5C2B7D2B61208FBC2B60208FF59
:050945001208FF7F30E5
:10094A008F90D2B5C2B7D2B67FF47E011208FFC229
:07095A00B67F321E0208FF08
:10088C00E4F59075B0037F987E3A1209457F947E0B
:10089C00111209457F2C7E011209457F8A7E0212B6
:1008AC0008FF7F381208F87F0F1208F87F01120832
:1008BC00F87F061208F87F8F1209617F327E0002E2
:0208CC0008FF23
:1008CE0012088C900000AF8274082FF8E6FF6019B2
:1008DE0012094A7FC87E001208FF7F181209617F35
:0908EE00587E021208FFA380DD10
:0108F70022DE
:10080C000208CEE493A3F8E493A34003F68001F22C
:10081C0008DFF48029E493A3F85407240CC8C333ED
:10082C00C4540F4420C8834004F456800146F6DFBC
:10083C00E4800B010204081020408090091FE47E24
:10084C00019360BCA3FF543F30E509541FFEE493B1
:10085C00A360010ECF54C025E060A840B8E493A378
:10086C00FAE493A3F8E493A3C8C582C8CAC583CAA3
:10087C00F0A3C8C582C8CAC583CADFE9DEE780BE5B
:0109440000B2
:00000001FF
